:100000000C942A000C943C000C943C000C943C0092
:100010000C943C000C943C000C943C000C94580054
:100020000C943C000C943C000C943C000C943C0060
:100030000C943C000C943C000C943C000C943C0050
:100040000C943C000C943C000C943C000C943C0040
:100050000C943C0011241FBECFE5D8E0DEBFCDBF1D
:1000600020E0A0E6B0E001C01D92A236B207E1F7A1
:100070000E946F000C947F000C94000078942EB5C1
:1000800029602EBD29B7206129BF1DBC1CBC20E8FA
:100090003EE33BBD2ABD20916000309161002817EE
:1000A0003907CCF31092610010926000F894089523
:1000B0001F920F920FB60F9211248F939F938091EE
:1000C00060009091610001969093610080936000C0
:1000D0009F918F910F900FBE0F901F90189584B332
:1000E000806284BB84E690E00E943E0095B380E28B
:1000F000892785BB84E690E00E943E00F3CFF89408
:02010000FFCF2F
:00000001FF
