:100000000C942A000C9434000C9434000C943400AA
:100010000C9434000C9434000C9434000C94340090
:100020000C9434000C9434000C9434000C94340080
:100030000C9434000C9434000C9434000C94340070
:100040000C9434000C9434000C9434000C94340060
:100050000C94340011241FBECFE5D8E0DEBFCDBF25
:100060000E9444000C944A000C94000010BC87E6E7
:1000700089B98AB188618AB980B5866880BD0895DA
:100080005D9BFECF8CB908950E94360081E60E94E8
:080090004000FCCFF894FFCF03
:00000001FF
