:100000000C9462000C948A000C948A000C948A0070
:100010000C948A000C948A000C948A000C948A0038
:100020000C948A000C948A000C948A000C948A0028
:100030000C948A000C948A000C948A000C948A0018
:100040000C94FC000C948A000C943A020C948C02E0
:100050000C948A000C948A000C948A000C948A00F8
:100060000C948A000C948A000000000024002700F1
:100070002A0000000000250028002B0000000000DE
:1000800023002600290004040404040404040202DA
:100090000202020203030303030301020408102007
:1000A0004080010204081020010204081020000012
:1000B0000007000201000003040600000000000029
:1000C0000000FB0311241FBECFEFD8E0DEBFCDBF81
:1000D00011E0A0E0B1E0E4E2FBE002C005900D9287
:1000E000AE34B107D9F712E0AEE4B1E001C01D9221
:1000F000A530B107E1F710E0C4ECD0E004C02297CE
:10010000FE010E948C05C23CD107C9F70E9452042F
:100110000C9490050C940000EF92FF920F931F93A4
:100120008EE00E94D801AA2797FDA095BA2FBC01A6
:10013000CD010E94DE0460934E0170934F018093C5
:1001400050019093510164E670E080E090E00E94DD
:10015000440183EE91E060E071E00E94C904E09008
:100160004E01F0904F010091500110915101C801D2
:10017000B70120E030E048E454E40E943D058823C4
:100180002CF083EE91E06EE071E022C0C801B7016F
:1001900020E030E04AEF53E40E943D0588232CF034
:1001A00083EE91E06CE171E013C0C801B70120E07B
:1001B00030E04AE753E40E943D0588232CF083EEAB
:1001C00091E065E271E004C083EE91E06EE271E0DF
:1001D0000E94C9041F910F91FF90EF9008958EE047
:1001E00060E00E94FA0183EE91E040E855E260E0B1
:1001F00070E00E94C70208951F920F920FB60F92EF
:1002000011242F933F938F939F93AF93BF9380912C
:10021000560190915701A0915801B0915901309128
:100220005A010196A11DB11D232F2D5F2D3720F0FE
:100230002D570196A11DB11D20935A01809356019F
:1002400090935701A0935801B093590180915201A6
:1002500090915301A0915401B09155010196A11DB7
:10026000B11D8093520190935301A0935401B09318
:100270005501BF91AF919F918F913F912F910F9019
:100280000FBE0F901F9018959B01AC017FB7F8949B
:100290008091520190915301A0915401B091550168
:1002A00066B5A89B05C06F3F19F00196A11DB11D51
:1002B0007FBFBA2FA92F982F8827860F911DA11DC8
:1002C000B11D62E0880F991FAA1FBB1F6A95D1F765
:1002D000BC012DC0FFB7F894809152019091530159
:1002E000A0915401B0915501E6B5A89B05C0EF3F20
:1002F00019F00196A11DB11DFFBFBA2FA92F982F8C
:1003000088278E0F911DA11DB11DE2E0880F991F56
:10031000AA1FBB1FEA95D1F7861B970B885E9340F7
:10032000C8F2215030404040504068517C4F211568
:1003300031054105510571F60895789484B58260C0
:1003400084BD84B5816084BD85B5826085BD85B579
:10035000816085BDEEE6F0E0808181608083E1E828
:10036000F0E0108280818260808380818160808360
:10037000E0E8F0E0808181608083E1EBF0E0808163
:1003800084608083E0EBF0E0808181608083EAE735
:10039000F0E08081846080838081826080838081BE
:1003A000816080838081806880831092C10008957D
:1003B000982F8E3008F09E50977080913C01829566
:1003C000880F880F807C892B80937C0080917A0035
:1003D000806480937A0080917A0086FDFCCF209122
:1003E000780040917900942F80E030E0282B392B61
:1003F000C9010895CF93DF93482F50E0CA01865674
:100400009F4FFC0134914A575F4FFA018491882332
:1004100069F190E0880F991FFC01E859FF4FA59101
:10042000B491FC01EE58FF4FC591D491662351F46D
:100430002FB7F8948C91932F909589238C93888172
:1004400089230BC0623061F42FB7F8948C91932FFD
:10045000909589238C938881832B88832FBF06C036
:100460009FB7F8948C91832B8C939FBFDF91CF9192
:10047000089508951F920F920FB60F9211242F9393
:100480003F934F938F939F93EF93FF938091C0007F
:1004900082FD1DC04091C60020919B0130919C01BE
:1004A0002F5F3F4F2F73307080919D0190919E017F
:1004B0002817390771F0E0919B01F0919C01E55AF2
:1004C000FE4F408330939C0120939B0102C080919A
:1004D000C600FF91EF919F918F914F913F912F9186
:1004E0000F900FBE0F901F901895E091EF01F091C3
:1004F000F001E05CFF4F8191919120813181805C1E
:100500009F4F821B930B60E470E00E944105892B92
:1005100011F00E94390208951F920F920FB60F92A8
:1005200011242F933F938F939F93EF93FF932091E9
:10053000DF013091E0018091E1019091E201281703
:10054000390731F48091C1008F7D8093C10014C0C0
:10055000E091E101F091E201E156FE4F20818091AE
:10056000E1019091E20101968F7390709093E20106
:100570008093E1012093C600FF91EF919F918F91AD
:100580003F912F910F900FBE0F901F901895AF9233
:10059000BF92DF92EF92FF920F931F93CF93DF935F
:1005A000EC017A018B01DD24403081EE580780E0B8
:1005B000680780E0780711F0DD24D39491E0A92E3C
:1005C000B12CEC89FD89DD2069F0C50108A002C0CD
:1005D000880F991F0A94E2F7808360E079E08DE349
:1005E00090E005C0108260E874E88EE190E0A80118
:1005F00097010E945405215030404040504056958C
:1006000047953795279580E12030380720F0DD2089
:1006100011F0DD24D6CFE889F9893083EA89FB8996
:10062000208319A2EE89FF89408121E030E0C901D1
:100630000C8C02C0880F991F0A94E2F7482B408364
:10064000EE89FF894081C9010D8C02C0880F991F76
:100650000A94E2F7482B4083EE89FF894081C90163
:100660000E8C02C0880F991F0A94E2F7482B408332
:10067000EE89FF8980810F8C02C0220F331F0A94FC
:10068000E2F7209528232083DF91CF911F910F91CE
:10069000FF90EF90DF90BF90AF900895DC011C9623
:1006A000ED91FC911D97E05CFF4F8191919120812C
:1006B0003181805C9F4F821B930B60E470E00E944D
:1006C00041050895DC011C96ED91FC911D97E05CBD
:1006D000FF4F20813181E054F040DF01AE5BBF4F1E
:1006E0008D919C9111972817390719F42FEF3FEF3F
:1006F00007C08D919C91E80FF91F8081282F30E071
:10070000C9010895DC011C96ED91FC911D97E05CF8
:10071000FF4F20813181E054F040DF01AE5BBF4FDD
:100720008D919C9111972817390719F42FEF3FEFFE
:1007300010C08D919C911197E80FF91F20818D9128
:100740009C91119701968F73907011969C938E9344
:1007500030E0C9010895DC0191968C91919788232E
:1007600039F05496ED91FC915597808186FFF9CF31
:1007700091961C920895CF93DF93EC01EE85FF854F
:10078000E05CFF4F20813181E054F0402F5F3F4F0C
:100790002F733070DF01AE5BBF4F8D919C9111972D
:1007A00028173907D1F3E05CFF4F80819181E05435
:1007B000F040E80FF91F6083EE85FF85E05CFF4F96
:1007C00031832083EE89FF89208181E090E00F8CC6
:1007D00002C0880F991F0A94E2F7282B208381E03A
:1007E00089A3EC89FD8980818064808381E090E029
:1007F000DF91CF9108951092E6011092E50188EE05
:1008000093E0A0E0B0E08093E7019093E801A0932B
:10081000E901B093EA0181E491E09093E4018093CF
:10082000E3018BE591E09093F0018093EF018FE974
:1008300091E09093F2018093F10185EC90E0909328
:10084000F4018093F30184EC90E09093F60180939F
:10085000F50180EC90E09093F8018093F70181EC32
:1008600090E09093FA018093F90182EC90E09093EC
:10087000FC018093FB0186EC90E09093FE01809355
:10088000FD0184E08093FF0183E08093000287E014
:100890008093010285E08093020281E0809303024D
:1008A00008950895CF93DF930E949D010E94510403
:1008B0000E94EF00C5E7D2E00E948C002097E1F390
:1008C0000E947502F9CFCF92DF92EF92FF920F93C1
:1008D0001F93CF93DF937C016B018A01C0E0D0E0CE
:1008E0000FC0D6016D916D01D701ED91FC91019082
:1008F000F081E02DC7010995C80FD91F01501040A4
:100900000115110571F7CE01DF91CF911F910F9164
:10091000FF90EF90DF90CF900895EF92FF920F93AA
:100920001F938C01DC01ED91FC910190F081E02D91
:100930006DE009957C01D801ED91FC910190F08169
:10094000E02DC8016AE009959C012E0D3F1DC901EB
:100950001F910F91FF90EF900895CF93DF93EC01DB
:100960006115710519F420E030E00FC0DB010D9036
:100970000020E9F71197A61BB70BE881F9810280E7
:10098000F381E02DAD0109959C01C901DF91CF9163
:100990000895EF92FF920F931F937C010E94AD0484
:1009A0008C01C7010E948D04080F191FC8011F91F7
:1009B0000F91FF90EF900895E89409C097FB3EF4E3
:1009C00090958095709561957F4F8F4F9F4F99239C
:1009D000A9F0F92F96E9BB279395F695879577951A
:1009E0006795B795F111F8CFFAF4BB0F11F460FFDA
:1009F0001BC06F5F7F4F8F4F9F4F16C0882311F032
:100A000096E911C0772321F09EE8872F762F05C045
:100A1000662371F096E8862F70E060E02AF09A95E0
:100A2000660F771F881FDAF7880F9695879597F9D5
:100A30000895990F0008550FAA0BE0E8FEEF16166F
:100A40001706E807F907C0F012161306E407F507C2
:100A500098F0621B730B840B950B39F40A2661F036
:100A6000232B242B252B21F408950A2609F4A140D9
:100A7000A6958FEF811D811D0895DBDF08F48FEFB0
:100A8000089597FB092E07260AD077FD04D02ED0B3
:100A900006D000201AF4709561957F4F0895F6F7FF
:100AA000909581959F4F0895A1E21A2EAA1BBB1B1A
:100AB000FD010DC0AA1FBB1FEE1FFF1FA217B3072A
:100AC000E407F50720F0A21BB30BE40BF50B661F40
:100AD000771F881F991F1A9469F760957095809504
:100AE00090959B01AC01BD01CF010895AA1BBB1BD2
:100AF00051E107C0AA1FBB1FA617B70710F0A61B1E
:100B0000B70B881F991F5A95A9F780959095BC013E
:100B1000CD010895EE0FFF1F0590F491E02D09948B
:040B2000F894FFCF77
:100B2400736F696C206D6F69737475726500766597
:100B340072792064727920736F696C006472792011
:100B4400736F696C0077657420736F696C007665E8
:100B540072792077657420736F696C00010000005E
:0E0B640000BB0363044E0382036203AB030075
:00000001FF
